{
  "_format": "hh-sol-artifact-1",
  "contractName": "Voting_system",
  "sourceName": "contracts/Voting_system.sol",
  "abi": [
    {
      "inputs": [],
      "stateMutability": "nonpayable",
      "type": "constructor"
    },
    {
      "anonymous": false,
      "inputs": [
        {
          "indexed": false,
          "internalType": "uint256",
          "name": "Candidate",
          "type": "uint256"
        }
      ],
      "name": "Vote",
      "type": "event"
    },
    {
      "inputs": [
        {
          "internalType": "bytes32",
          "name": "candidateName",
          "type": "bytes32"
        }
      ],
      "name": "add_candidate",
      "outputs": [],
      "stateMutability": "nonpayable",
      "type": "function"
    },
    {
      "inputs": [],
      "name": "commissioner",
      "outputs": [
        {
          "internalType": "address",
          "name": "",
          "type": "address"
        }
      ],
      "stateMutability": "view",
      "type": "function"
    },
    {
      "inputs": [],
      "name": "data",
      "outputs": [
        {
          "internalType": "uint256",
          "name": "",
          "type": "uint256"
        }
      ],
      "stateMutability": "view",
      "type": "function"
    },
    {
      "inputs": [
        {
          "internalType": "uint256",
          "name": "index_of_candidate",
          "type": "uint256"
        }
      ],
      "name": "get_candidate_details",
      "outputs": [
        {
          "components": [
            {
              "internalType": "uint256",
              "name": "index",
              "type": "uint256"
            },
            {
              "internalType": "bytes32",
              "name": "name",
              "type": "bytes32"
            },
            {
              "internalType": "uint256",
              "name": "voteCount",
              "type": "uint256"
            }
          ],
          "internalType": "struct Voting_system.candidate",
          "name": "",
          "type": "tuple"
        }
      ],
      "stateMutability": "view",
      "type": "function"
    },
    {
      "inputs": [
        {
          "internalType": "uint256",
          "name": "index_of_voter",
          "type": "uint256"
        }
      ],
      "name": "get_voter_details",
      "outputs": [
        {
          "components": [
            {
              "internalType": "uint256",
              "name": "index",
              "type": "uint256"
            },
            {
              "internalType": "bytes32",
              "name": "name",
              "type": "bytes32"
            },
            {
              "internalType": "address",
              "name": "own_address",
              "type": "address"
            },
            {
              "internalType": "uint256",
              "name": "weight",
              "type": "uint256"
            },
            {
              "internalType": "bool",
              "name": "voted",
              "type": "bool"
            },
            {
              "internalType": "bytes32",
              "name": "voted_candidate",
              "type": "bytes32"
            }
          ],
          "internalType": "struct Voting_system.voter",
          "name": "",
          "type": "tuple"
        }
      ],
      "stateMutability": "view",
      "type": "function"
    },
    {
      "inputs": [
        {
          "internalType": "bytes32",
          "name": "voter_name",
          "type": "bytes32"
        }
      ],
      "name": "join_election",
      "outputs": [],
      "stateMutability": "nonpayable",
      "type": "function"
    },
    {
      "inputs": [],
      "name": "readData",
      "outputs": [
        {
          "internalType": "uint256",
          "name": "",
          "type": "uint256"
        }
      ],
      "stateMutability": "view",
      "type": "function"
    },
    {
      "inputs": [],
      "name": "start_election",
      "outputs": [],
      "stateMutability": "nonpayable",
      "type": "function"
    },
    {
      "inputs": [
        {
          "internalType": "uint256",
          "name": "_data",
          "type": "uint256"
        }
      ],
      "name": "updateData",
      "outputs": [],
      "stateMutability": "nonpayable",
      "type": "function"
    },
    {
      "inputs": [
        {
          "internalType": "uint256",
          "name": "Candidate",
          "type": "uint256"
        }
      ],
      "name": "vote",
      "outputs": [],
      "stateMutability": "nonpayable",
      "type": "function"
    },
    {
      "inputs": [],
      "name": "winningCandidate",
      "outputs": [
        {
          "internalType": "bytes32",
          "name": "winningCandidate_name",
          "type": "bytes32"
        }
      ],
      "stateMutability": "view",
      "type": "function"
    }
  ],
  "bytecode": "0x60806040526000600155600060025534801561001a57600080fd5b50336000806101000a81548173ffffffffffffffffffffffffffffffffffffffff021916908373ffffffffffffffffffffffffffffffffffffffff16021790555061151b8061006a6000396000f3fe608060405234801561001057600080fd5b50600436106100a95760003560e01c8063a0f0176911610071578063a0f0176914610150578063bef55ef314610180578063d19787761461019e578063d28178d7146101a8578063eb989e9a146101c6578063f1894498146101e2576100a9565b80630121b93f146100ae57806309e96008146100ca5780634cd74bf9146100e65780634edf32751461011657806373d4a13a14610132575b600080fd5b6100c860048036038101906100c39190610ee3565b610200565b005b6100e460048036038101906100df9190610ee3565b6104b5565b005b61010060048036038101906100fb9190610ee3565b6104bf565b60405161010d91906111d6565b60405180910390f35b610130600480360381019061012b9190610eb6565b610622565b005b61013a610792565b60405161014791906111f1565b60405180910390f35b61016a60048036038101906101659190610ee3565b610798565b60405161017791906111bb565b60405180910390f35b610188610880565b60405161019591906111f1565b60405180910390f35b6101a661088a565b005b6101b0610998565b6040516101bd9190611100565b60405180910390f35b6101e060048036038101906101db9190610eb6565b610aa4565b005b6101ea610c03565b6040516101f791906110e5565b60405180910390f35b6000339050600080600090505b6002548112156102a7578273ffffffffffffffffffffffffffffffffffffffff166003828154811061024257610241611390565b5b906000526020600020906006020160020160009054906101000a900473ffffffffffffffffffffffffffffffffffffffff1673ffffffffffffffffffffffffffffffffffffffff161415610294578091505b808061029f906112cf565b91505061020d565b50600381815481106102bc576102bb611390565b5b906000526020600020906006020160040160009054906101000a900460ff161561031b576040517f08c379a00000000000000000000000000000000000000000000000000000000081526004016103129061117b565b60405180910390fd5b60006003828154811061033157610330611390565b5b9060005260206000209060060201600301541415610384576040517f08c379a000000000000000000000000000000000000000000000000000000000815260040161037b9061111b565b60405180910390fd5b60016003828154811061039a57610399611390565b5b906000526020600020906006020160040160006101000a81548160ff021916908315150217905550600483815481106103d6576103d5611390565b5b906000526020600020906003020160010154600382815481106103fc576103fb611390565b5b90600052602060002090600602016005018190555060016004848154811061042757610426611390565b5b90600052602060002090600302016002016000828254610447919061121d565b9250508190555060006003828154811061046457610463611390565b5b9060005260206000209060060201600301819055507fdcd6a5cd90707bfd61ed2fddae23e88c584cb5b78a0e9989710a59fd84c0a1f9836040516104a891906111f1565b60405180910390a1505050565b8060058190555050565b6104c7610e14565b60008054906101000a900473ffffffffffffffffffffffffffffffffffffffff1673ffffffffffffffffffffffffffffffffffffffff163373ffffffffffffffffffffffffffffffffffffffff1614610555576040517f08c379a000000000000000000000000000000000000000000000000000000000815260040161054c9061115b565b60405180910390fd5b6003828154811061056957610568611390565b5b90600052602060002090600602016040518060c001604052908160008201548152602001600182015481526020016002820160009054906101000a900473ffffffffffffffffffffffffffffffffffffffff1673ffffffffffffffffffffffffffffffffffffffff1673ffffffffffffffffffffffffffffffffffffffff168152602001600382015481526020016004820160009054906101000a900460ff161515151581526020016005820154815250509050919050565b61062b33610c2c565b6107545760036040518060c0016040528060025481526020018381526020013373ffffffffffffffffffffffffffffffffffffffff168152602001600081526020016000151581526020016000801b8152509080600181540180825580915050600190039060005260206000209060060201600090919091909150600082015181600001556020820151816001015560408201518160020160006101000a81548173ffffffffffffffffffffffffffffffffffffffff021916908373ffffffffffffffffffffffffffffffffffffffff1602179055506060820151816003015560808201518160040160006101000a81548160ff02191690831515021790555060a0820151816005015550506002600081548092919061074a90611318565b919050555061078f565b6040517f08c379a00000000000000000000000000000000000000000000000000000000081526004016107869061113b565b60405180910390fd5b50565b60055481565b6107a0610e68565b60008054906101000a900473ffffffffffffffffffffffffffffffffffffffff1673ffffffffffffffffffffffffffffffffffffffff163373ffffffffffffffffffffffffffffffffffffffff161461082e576040517f08c379a00000000000000000000000000000000000000000000000000000000081526004016108259061115b565b60405180910390fd5b6004828154811061084257610841611390565b5b906000526020600020906003020160405180606001604052908160008201548152602001600182015481526020016002820154815250509050919050565b6000600554905090565b60008054906101000a900473ffffffffffffffffffffffffffffffffffffffff1673ffffffffffffffffffffffffffffffffffffffff163373ffffffffffffffffffffffffffffffffffffffff1614610918576040517f08c379a000000000000000000000000000000000000000000000000000000000815260040161090f9061115b565b60405180910390fd5b600080600090505b600254811015610994576000600382815481106109405761093f611390565b5b906000526020600020906006020190508060020160009054906101000a900473ffffffffffffffffffffffffffffffffffffffff16925061098083610cda565b50808061098c90611318565b915050610920565b5050565b60008060009054906101000a900473ffffffffffffffffffffffffffffffffffffffff1673ffffffffffffffffffffffffffffffffffffffff163373ffffffffffffffffffffffffffffffffffffffff16146109f357600080fd5b6000806000905060005b600480549050811015610a76578160048281548110610a1f57610a1e611390565b5b9060005260206000209060030201600201541115610a635760048181548110610a4b57610a4a611390565b5b90600052602060002090600302016002015491508092505b8080610a6e90611318565b9150506109fd565b5060048281548110610a8b57610a8a611390565b5b9060005260206000209060030201600101549250505090565b60008054906101000a900473ffffffffffffffffffffffffffffffffffffffff1673ffffffffffffffffffffffffffffffffffffffff163373ffffffffffffffffffffffffffffffffffffffff1614610b32576040517f08c379a0000000000000000000000000000000000000000000000000000000008152600401610b299061115b565b60405180910390fd5b610b3b81610dac565b610bc55760046040518060600160405280600154815260200183815260200160008152509080600181540180825580915050600190039060005260206000209060030201600090919091909150600082015181600001556020820151816001015560408201518160020155505060016000815480929190610bbb90611318565b9190505550610c00565b6040517f08c379a0000000000000000000000000000000000000000000000000000000008152600401610bf79061119b565b60405180910390fd5b50565b60008060009054906101000a900473ffffffffffffffffffffffffffffffffffffffff16905090565b60008080600090505b600254811015610cd35760038181548110610c5357610c52611390565b5b906000526020600020906006020160020160009054906101000a900473ffffffffffffffffffffffffffffffffffffffff1691508373ffffffffffffffffffffffffffffffffffffffff168273ffffffffffffffffffffffffffffffffffffffff161415610cc057600192505b8080610ccb90611318565b915050610c35565b5050919050565b600080600090505b600254811215610d7c5760038181548110610d0057610cff611390565b5b906000526020600020906006020160020160009054906101000a900473ffffffffffffffffffffffffffffffffffffffff1673ffffffffffffffffffffffffffffffffffffffff168373ffffffffffffffffffffffffffffffffffffffff161415610d69578091505b8080610d74906112cf565b915050610ce2565b50600160038281548110610d9357610d92611390565b5b9060005260206000209060060201600301819055505050565b60008080600090505b600154811015610e0d57600060048281548110610dd557610dd4611390565b5b906000526020600020906003020190508060010154925084831415610df957600193505b508080610e0590611318565b915050610db5565b5050919050565b6040518060c001604052806000815260200160008019168152602001600073ffffffffffffffffffffffffffffffffffffffff16815260200160008152602001600015158152602001600080191681525090565b60405180606001604052806000815260200160008019168152602001600081525090565b600081359050610e9b816114b7565b92915050565b600081359050610eb0816114ce565b92915050565b600060208284031215610ecc57610ecb6113bf565b5b6000610eda84828501610e8c565b91505092915050565b600060208284031215610ef957610ef86113bf565b5b6000610f0784828501610ea1565b91505092915050565b610f1981611273565b82525050565b610f2881611273565b82525050565b610f3781611285565b82525050565b610f4681611291565b82525050565b610f5581611291565b82525050565b6000610f6860148361120c565b9150610f73826113c4565b602082019050919050565b6000610f8b60178361120c565b9150610f96826113ed565b602082019050919050565b6000610fae60218361120c565b9150610fb982611416565b604082019050919050565b6000610fd1600e8361120c565b9150610fdc82611465565b602082019050919050565b6000610ff460178361120c565b9150610fff8261148e565b602082019050919050565b60608201600082015161102060008501826110c7565b5060208201516110336020850182610f3d565b50604082015161104660408501826110c7565b50505050565b60c08201600082015161106260008501826110c7565b5060208201516110756020850182610f3d565b5060408201516110886040850182610f10565b50606082015161109b60608501826110c7565b5060808201516110ae6080850182610f2e565b5060a08201516110c160a0850182610f3d565b50505050565b6110d0816112c5565b82525050565b6110df816112c5565b82525050565b60006020820190506110fa6000830184610f1f565b92915050565b60006020820190506111156000830184610f4c565b92915050565b6000602082019050818103600083015261113481610f5b565b9050919050565b6000602082019050818103600083015261115481610f7e565b9050919050565b6000602082019050818103600083015261117481610fa1565b9050919050565b6000602082019050818103600083015261119481610fc4565b9050919050565b600060208201905081810360008301526111b481610fe7565b9050919050565b60006060820190506111d0600083018461100a565b92915050565b600060c0820190506111eb600083018461104c565b92915050565b600060208201905061120660008301846110d6565b92915050565b600082825260208201905092915050565b6000611228826112c5565b9150611233836112c5565b9250827fffffffffffffffffffffffffffffffffffffffffffffffffffffffffffffffff0382111561126857611267611361565b5b828201905092915050565b600061127e826112a5565b9050919050565b60008115159050919050565b6000819050919050565b6000819050919050565b600073ffffffffffffffffffffffffffffffffffffffff82169050919050565b6000819050919050565b60006112da8261129b565b91507f7fffffffffffffffffffffffffffffffffffffffffffffffffffffffffffffff82141561130d5761130c611361565b5b600182019050919050565b6000611323826112c5565b91507fffffffffffffffffffffffffffffffffffffffffffffffffffffffffffffffff82141561135657611355611361565b5b600182019050919050565b7f4e487b7100000000000000000000000000000000000000000000000000000000600052601160045260246000fd5b7f4e487b7100000000000000000000000000000000000000000000000000000000600052603260045260246000fd5b600080fd5b7f486173206e6f20726967687420746f20766f7465000000000000000000000000600082015250565b7f416c7265616479206a6f696e656420656c656374696f6e000000000000000000600082015250565b7f596f7520617265206e6f7420456c656374696f6e20636f6d6d697373696f6e6560008201527f7200000000000000000000000000000000000000000000000000000000000000602082015250565b7f416c726561647920766f7465642e000000000000000000000000000000000000600082015250565b7f416c72656164792061646465642063616e646964617465000000000000000000600082015250565b6114c081611291565b81146114cb57600080fd5b50565b6114d7816112c5565b81146114e257600080fd5b5056fea2646970667358221220887ef808a468474c6b8e74afeffd04dedb3a635fe12c087eebc1958a296bb15a64736f6c63430008070033",
  "linkReferences": {},
  "deployedLinkReferences": {}
}